const { expect } = require("chai");
const testdata = require("../data/jsonHeaders.json");

describe("BSCRelay", function() {
    let bscRelayContractFactory;
    let bscRelay;

    beforeEach(async () => {
        bscRelayContractFactory = await ethers.getContractFactory("BSCRelay");
        bscRelay = await bscRelayContractFactory.deploy(["0x22b81f8e175ffde54d797fe11eb03f9e3bf75f1d","0x2a7cdd959bfe8d9487b2a43b33565295a698f7e2","0x2d4c407bbe49438ed859fe965b140dcf1aab71a9","0x2f7be8361c80a4c1e7e9aaf001d0877f1cfde218","0x35e7a025f4da968de7e4d7e4004197917f4070f1","0x4430b3230294d12c6ab2aac5c2cd68e80b16b581","0x6488aa4d1955ee33403f8ccb1d4de5fb97c7ade2","0x685b1ded8013785d6623cc18d214320b6bb64759","0x68bf0b8b6fb4e317a0f9d6f03eaf8ce6675bc60d","0x6bbad7cf34b5fa511d8e963dbba288b1960e75d6","0x78f3adfc719c99674c072166708589033e2d9afe","0x7ae2f5b9e386cd1b50a4550696d957cb4900f03a","0x82012708dafc9e1b880fd083b32182b869be8e09","0x8c4d90829ce8f72d0163c1d5cf348a862d550630","0x9ef9f4360c606c7ab4db26b016007d3ad0ab86a0","0xb8f7166496996a7da21cf1f1b04d9b3e26a3d077","0xc2be4ec20253b8642161bc3f444f53679c1f3d47","0xce2fd7544e0b2cc94692d4a704debef7bcb61328","0xd6caa02bbebaebb5d7e581e4b66559e635f805ff","0xea0a6e3c511bbd10f4519ece37dc24887e11b55d","0xee01c3b1283aa067c58eab4709f85e99d46de5fe"]);
        await bscRelay.deployed();
    });

    describe("decodeRLPHeader", function () {
        it("Check method decodeRLPHeader", async function () {

            //rlp with sign
            const blockHeader = await bscRelay.decodeRLPHeader("0xf9040438a01af4e70b0f0b53beca1a9245f9bdb019a1ab02ec9c4de37cee7df8a3b8f32dbba01dcc4de8dec75d7aab85b567b6ccd41ad312451b948a7413f0a142fd40d493479429a97c6effb8a411dabc6adeefaa84f5067c8bbea0b5418b7cc912f9bfd36eed2e75e64ef400504959cbd277cc486d4512b1b38b6ca0eb91b548f07b0253574f73222ea231bf51aeac360e2d23b2c7fa2fbf4274078fa0a9b58df78ab92faf24df066cfb315ee12a8d45618bef47ffc547c9e824881c19b90100f42bb78d4c7ef477bb7fc82dab8ea4ee6cd66b73f7d5f76f295a3ff2beb2d9167921653a70cb770afd49b8ff6a8d26029fef82eb32c0b1b1b5b77f8db36736bdd7fdf7461ad1acce1f3bb27d7c7f7def34d7f23bda646996b19caeaef25afaa57e5cb567ba07b7f2fd6cd36acf86fbb2aff57f7f82b947d2be70f4f3f9dcfe4d9eec66257ada93be1afffe889d7f7ecbd9f47fa7582ddbeeff3c756adfaafdffd3e541f7e16adb41fb96312dd7ae7c88bb3efdb132d42bb5fbb8932fdeeefad26fc3df0786ea546246d6ddf9fd5fdb696d571d1614bbd59cf1dc3bbfca38fcf62efbbdfbb7f9e3153332b2c11d0882b65c087fb8679afde9eeca035edeeb9c9702837fcd3084039387008401a6955a8460cb437fb90205d883010100846765746888676f312e31352e35856c696e7578000000fc3ca6b72465176c461afb316ebc773c61faee85a6515daa295e26495cef6f69dfa69911d9d8e4f3bbadb89b29a97c6effb8a411dabc6adeefaa84f5067c8bbe2d4c407bbe49438ed859fe965b140dcf1aab71a93f349bbafec1551819b8be1efea2fc46ca749aa14430b3230294d12c6ab2aac5c2cd68e80b16b581685b1ded8013785d6623cc18d214320b6bb6475970f657164e5b75689b64b7fd1fa275f334f28e187ae2f5b9e386cd1b50a4550696d957cb4900f03a8b6c8fd93d6f4cea42bbb345dbc6f0dfdb5bec739bb832254baf4e8b4cc26bd2b52b31389b56e98b9f8ccdafcc39f3c7d6ebf637c9151673cbc36b88a6f79b60359f141df90a0c745125b131caaffd12b218c5d6af1f979ac42bc68d98a5a0d796c6ab01b8f7166496996a7da21cf1f1b04d9b3e26a3d077be807dddb074639cd9fa61b47676c064fc50d62cce2fd7544e0b2cc94692d4a704debef7bcb61328e2d3a739effcd3a99387d015e260eefac72ebea1e9ae3261a475a27bb1028f140bc2a7c843318afdea0a6e3c511bbd10f4519ece37dc24887e11b55dee226379db83cffc681495730c11fdde79ba4c0c9a98e2f70f793acf0b59638046e90ad01a903e5fdfbd7c8e63c0d14dc59c7549094110bfb8bed3c61f7b022da8d0b5b318acbd894e0fdd9c0612304515e00e9301a00000000000000000000000000000000000000000000000000000000000000000880000000000000000");

            expect(blockHeader.parentHash).to.equal("0x1af4e70b0f0b53beca1a9245f9bdb019a1ab02ec9c4de37cee7df8a3b8f32dbb");
            expect(blockHeader.uncleHash).to.equal("0x1dcc4de8dec75d7aab85b567b6ccd41ad312451b948a7413f0a142fd40d49347");
            expect(blockHeader.miner).to.be.equal("0x29a97C6EfFB8A411DABc6aDEEfaa84f5067C8bbe");
            expect(blockHeader.stateRoot).to.equal("0xb5418b7cc912f9bfd36eed2e75e64ef400504959cbd277cc486d4512b1b38b6c");
            expect(blockHeader.transactionsRoot).to.equal("0xeb91b548f07b0253574f73222ea231bf51aeac360e2d23b2c7fa2fbf4274078f");
            expect(blockHeader.receiptsRoot).to.equal("0xa9b58df78ab92faf24df066cfb315ee12a8d45618bef47ffc547c9e824881c19");
            expect(blockHeader.difficulty).to.equal(2);
            expect(blockHeader.blockNumber).to.equal(8375600);
            expect(blockHeader.gasLimit).to.equal(60000000);
            expect(blockHeader.gasUsed).to.equal(27694426);
            expect(blockHeader.timestamp).to.equal(1623933823);
            expect(blockHeader.extraData).to.equal("0xd883010100846765746888676f312e31352e35856c696e7578000000fc3ca6b72465176c461afb316ebc773c61faee85a6515daa295e26495cef6f69dfa69911d9d8e4f3bbadb89b29a97c6effb8a411dabc6adeefaa84f5067c8bbe2d4c407bbe49438ed859fe965b140dcf1aab71a93f349bbafec1551819b8be1efea2fc46ca749aa14430b3230294d12c6ab2aac5c2cd68e80b16b581685b1ded8013785d6623cc18d214320b6bb6475970f657164e5b75689b64b7fd1fa275f334f28e187ae2f5b9e386cd1b50a4550696d957cb4900f03a8b6c8fd93d6f4cea42bbb345dbc6f0dfdb5bec739bb832254baf4e8b4cc26bd2b52b31389b56e98b9f8ccdafcc39f3c7d6ebf637c9151673cbc36b88a6f79b60359f141df90a0c745125b131caaffd12b218c5d6af1f979ac42bc68d98a5a0d796c6ab01b8f7166496996a7da21cf1f1b04d9b3e26a3d077be807dddb074639cd9fa61b47676c064fc50d62cce2fd7544e0b2cc94692d4a704debef7bcb61328e2d3a739effcd3a99387d015e260eefac72ebea1e9ae3261a475a27bb1028f140bc2a7c843318afdea0a6e3c511bbd10f4519ece37dc24887e11b55dee226379db83cffc681495730c11fdde79ba4c0c9a98e2f70f793acf0b59638046e90ad01a903e5fdfbd7c8e63c0d14dc59c7549094110bfb8bed3c61f7b022da8d0b5b318acbd894e0fdd9c0612304515e00e9301");
            expect(blockHeader.nonce).to.equal(0);
            expect(blockHeader.mixHash).to.equal("0x0000000000000000000000000000000000000000000000000000000000000000");

        });
    });

    describe("getValidatorSignature", function () {
        it("Get signature for epoch block", async function () {

            const signature = await bscRelay.getValidatorSignature("0xd883010100846765746888676f312e31352e35856c696e7578000000fc3ca6b72465176c461afb316ebc773c61faee85a6515daa295e26495cef6f69dfa69911d9d8e4f3bbadb89b29a97c6effb8a411dabc6adeefaa84f5067c8bbe2d4c407bbe49438ed859fe965b140dcf1aab71a93f349bbafec1551819b8be1efea2fc46ca749aa14430b3230294d12c6ab2aac5c2cd68e80b16b581685b1ded8013785d6623cc18d214320b6bb6475970f657164e5b75689b64b7fd1fa275f334f28e187ae2f5b9e386cd1b50a4550696d957cb4900f03a8b6c8fd93d6f4cea42bbb345dbc6f0dfdb5bec739bb832254baf4e8b4cc26bd2b52b31389b56e98b9f8ccdafcc39f3c7d6ebf637c9151673cbc36b88a6f79b60359f141df90a0c745125b131caaffd12b218c5d6af1f979ac42bc68d98a5a0d796c6ab01b8f7166496996a7da21cf1f1b04d9b3e26a3d077be807dddb074639cd9fa61b47676c064fc50d62cce2fd7544e0b2cc94692d4a704debef7bcb61328e2d3a739effcd3a99387d015e260eefac72ebea1e9ae3261a475a27bb1028f140bc2a7c843318afdea0a6e3c511bbd10f4519ece37dc24887e11b55dee226379db83cffc681495730c11fdde79ba4c0c9a98e2f70f793acf0b59638046e90ad01a903e5fdfbd7c8e63c0d14dc59c7549094110bfb8bed3c61f7b022da8d0b5b318acbd894e0fdd9c0612304515e00e9301");
            expect(signature).to.equal("0x9a98e2f70f793acf0b59638046e90ad01a903e5fdfbd7c8e63c0d14dc59c7549094110bfb8bed3c61f7b022da8d0b5b318acbd894e0fdd9c0612304515e00e9301");

        });

        it("Get signature for not epoch block", async function () {

            const signature = await bscRelay.getValidatorSignature("0xd883010002846765746888676f312e31332e34856c696e7578000000000000002a245ab66e6fdf78a8bdac9a72eb0bbdc778918e8c68f9b58b182b68e7a4d9ca3cc6a5c1d54cb05744e464840ea014b7fc15d069f28bd3b595697c013249fe3901");
            expect(signature).to.equal("0x2a245ab66e6fdf78a8bdac9a72eb0bbdc778918e8c68f9b58b182b68e7a4d9ca3cc6a5c1d54cb05744e464840ea014b7fc15d069f28bd3b595697c013249fe3901");

        });
    });

    describe("getValidatorSet", function () {
        it("Get validator set from extraData", async function () {

            const validatorSet = await bscRelay.getValidatorSet("0xd883010100846765746888676f312e31352e35856c696e7578000000fc3ca6b72465176c461afb316ebc773c61faee85a6515daa295e26495cef6f69dfa69911d9d8e4f3bbadb89b29a97c6effb8a411dabc6adeefaa84f5067c8bbe2d4c407bbe49438ed859fe965b140dcf1aab71a93f349bbafec1551819b8be1efea2fc46ca749aa14430b3230294d12c6ab2aac5c2cd68e80b16b581685b1ded8013785d6623cc18d214320b6bb6475970f657164e5b75689b64b7fd1fa275f334f28e187ae2f5b9e386cd1b50a4550696d957cb4900f03a8b6c8fd93d6f4cea42bbb345dbc6f0dfdb5bec739bb832254baf4e8b4cc26bd2b52b31389b56e98b9f8ccdafcc39f3c7d6ebf637c9151673cbc36b88a6f79b60359f141df90a0c745125b131caaffd12b218c5d6af1f979ac42bc68d98a5a0d796c6ab01b8f7166496996a7da21cf1f1b04d9b3e26a3d077be807dddb074639cd9fa61b47676c064fc50d62cce2fd7544e0b2cc94692d4a704debef7bcb61328e2d3a739effcd3a99387d015e260eefac72ebea1e9ae3261a475a27bb1028f140bc2a7c843318afdea0a6e3c511bbd10f4519ece37dc24887e11b55dee226379db83cffc681495730c11fdde79ba4c0c9a98e2f70f793acf0b59638046e90ad01a903e5fdfbd7c8e63c0d14dc59c7549094110bfb8bed3c61f7b022da8d0b5b318acbd894e0fdd9c0612304515e00e9301");

            expect(validatorSet[0]).to.equal("0x2465176c461afb316ebc773c61faee85a6515daa");
            expect(validatorSet[1]).to.equal("0x295e26495cef6f69dfa69911d9d8e4f3bbadb89b");
            expect(validatorSet[2]).to.equal("0x29a97c6effb8a411dabc6adeefaa84f5067c8bbe");
            expect(validatorSet[3]).to.equal("0x2d4c407bbe49438ed859fe965b140dcf1aab71a9");
            expect(validatorSet[4]).to.equal("0x3f349bbafec1551819b8be1efea2fc46ca749aa1");
            expect(validatorSet[5]).to.equal("0x4430b3230294d12c6ab2aac5c2cd68e80b16b581");
            expect(validatorSet[6]).to.equal("0x685b1ded8013785d6623cc18d214320b6bb64759");
            expect(validatorSet[7]).to.equal("0x70f657164e5b75689b64b7fd1fa275f334f28e18");
            expect(validatorSet[8]).to.equal("0x7ae2f5b9e386cd1b50a4550696d957cb4900f03a");
            expect(validatorSet[9]).to.equal("0x8b6c8fd93d6f4cea42bbb345dbc6f0dfdb5bec73");
            expect(validatorSet[10]).to.equal("0x9bb832254baf4e8b4cc26bd2b52b31389b56e98b");
            expect(validatorSet[11]).to.equal("0x9f8ccdafcc39f3c7d6ebf637c9151673cbc36b88");
            expect(validatorSet[12]).to.equal("0xa6f79b60359f141df90a0c745125b131caaffd12");
            expect(validatorSet[13]).to.equal("0xb218c5d6af1f979ac42bc68d98a5a0d796c6ab01");
            expect(validatorSet[14]).to.equal("0xb8f7166496996a7da21cf1f1b04d9b3e26a3d077");
            expect(validatorSet[15]).to.equal("0xbe807dddb074639cd9fa61b47676c064fc50d62c");
            expect(validatorSet[16]).to.equal("0xce2fd7544e0b2cc94692d4a704debef7bcb61328");
            expect(validatorSet[17]).to.equal("0xe2d3a739effcd3a99387d015e260eefac72ebea1");
            expect(validatorSet[18]).to.equal("0xe9ae3261a475a27bb1028f140bc2a7c843318afd");
            expect(validatorSet[19]).to.equal("0xea0a6e3c511bbd10f4519ece37dc24887e11b55d");
            expect(validatorSet[20]).to.equal("0xee226379db83cffc681495730c11fdde79ba4c0c");

        });
    });

    describe("verifyValidatorSignature", function () {
        it("Verify signature of the validator", async function () {

            const validatorAddress = await bscRelay.verifyValidatorSignature("0xf903c338a01af4e70b0f0b53beca1a9245f9bdb019a1ab02ec9c4de37cee7df8a3b8f32dbba01dcc4de8dec75d7aab85b567b6ccd41ad312451b948a7413f0a142fd40d493479429a97c6effb8a411dabc6adeefaa84f5067c8bbea0b5418b7cc912f9bfd36eed2e75e64ef400504959cbd277cc486d4512b1b38b6ca0eb91b548f07b0253574f73222ea231bf51aeac360e2d23b2c7fa2fbf4274078fa0a9b58df78ab92faf24df066cfb315ee12a8d45618bef47ffc547c9e824881c19b90100f42bb78d4c7ef477bb7fc82dab8ea4ee6cd66b73f7d5f76f295a3ff2beb2d9167921653a70cb770afd49b8ff6a8d26029fef82eb32c0b1b1b5b77f8db36736bdd7fdf7461ad1acce1f3bb27d7c7f7def34d7f23bda646996b19caeaef25afaa57e5cb567ba07b7f2fd6cd36acf86fbb2aff57f7f82b947d2be70f4f3f9dcfe4d9eec66257ada93be1afffe889d7f7ecbd9f47fa7582ddbeeff3c756adfaafdffd3e541f7e16adb41fb96312dd7ae7c88bb3efdb132d42bb5fbb8932fdeeefad26fc3df0786ea546246d6ddf9fd5fdb696d571d1614bbd59cf1dc3bbfca38fcf62efbbdfbb7f9e3153332b2c11d0882b65c087fb8679afde9eeca035edeeb9c9702837fcd3084039387008401a6955a8460cb437fb901c4d883010100846765746888676f312e31352e35856c696e7578000000fc3ca6b72465176c461afb316ebc773c61faee85a6515daa295e26495cef6f69dfa69911d9d8e4f3bbadb89b29a97c6effb8a411dabc6adeefaa84f5067c8bbe2d4c407bbe49438ed859fe965b140dcf1aab71a93f349bbafec1551819b8be1efea2fc46ca749aa14430b3230294d12c6ab2aac5c2cd68e80b16b581685b1ded8013785d6623cc18d214320b6bb6475970f657164e5b75689b64b7fd1fa275f334f28e187ae2f5b9e386cd1b50a4550696d957cb4900f03a8b6c8fd93d6f4cea42bbb345dbc6f0dfdb5bec739bb832254baf4e8b4cc26bd2b52b31389b56e98b9f8ccdafcc39f3c7d6ebf637c9151673cbc36b88a6f79b60359f141df90a0c745125b131caaffd12b218c5d6af1f979ac42bc68d98a5a0d796c6ab01b8f7166496996a7da21cf1f1b04d9b3e26a3d077be807dddb074639cd9fa61b47676c064fc50d62cce2fd7544e0b2cc94692d4a704debef7bcb61328e2d3a739effcd3a99387d015e260eefac72ebea1e9ae3261a475a27bb1028f140bc2a7c843318afdea0a6e3c511bbd10f4519ece37dc24887e11b55dee226379db83cffc681495730c11fdde79ba4c0ca00000000000000000000000000000000000000000000000000000000000000000880000000000000000", "0x9a98e2f70f793acf0b59638046e90ad01a903e5fdfbd7c8e63c0d14dc59c7549094110bfb8bed3c61f7b022da8d0b5b318acbd894e0fdd9c0612304515e00e9301");
            expect(validatorAddress).to.equal(ethers.utils.getAddress("0x29a97c6effb8a411dabc6adeefaa84f5067c8bbe"));
        });
    });

    describe("compareBlockHeader", function () {
        it("Check that signed and unsigned headers have matching fields", async function () {

            const validatorAddress = await bscRelay.compareBlockHeader(testdata.unsignedHeaders[0], testdata.signedHeaders[0]);
           //const validatorAddress = await bscRelay.compareBlockHeader("0xf903bd38a0d3e86fee61cc6a89aff2c9bbcefa6a4801869f751ec539144849d986c13e9b31a01dcc4de8dec75d7aab85b567b6ccd41ad312451b948a7413f0a142fd40d49347947ae2f5b9e386cd1b50a4550696d957cb4900f03aa0399b4fc0c23aa173febb49cbcfd8234a26218b4b7940df92e0839efe118da3eda056e81f171bcc55a6ff8345e692c0f86e5b48e01b996cadc001622fb5e363b421a056e81f171bcc55a6ff8345e692c0f86e5b48e01b996cadc001622fb5e363b421b90100000000000000000000000000000000000000000000000000000000000000000000000000000000000000000000000000000000000000000000000000000000000000000000000000000000000000000000000000000000000000000000000000000000000000000000000000000000000000000000000000000000000000000000000000000000000000000000000000000000000000000000000000000000000000000000000000000000000000000000000000000000000000000000000000000000000000000000000000000000000000000000000000000000000000000000000000000000000000000000000000000000000000000000000000000000000281c88401c9c38080845f49cd4bb901c4d883010002846765746888676f312e31332e34856c696e75780000000000000022b81f8e175ffde54d797fe11eb03f9e3bf75f1d2a7cdd959bfe8d9487b2a43b33565295a698f7e22d4c407bbe49438ed859fe965b140dcf1aab71a92f7be8361c80a4c1e7e9aaf001d0877f1cfde21835e7a025f4da968de7e4d7e4004197917f4070f14430b3230294d12c6ab2aac5c2cd68e80b16b5816488aa4d1955ee33403f8ccb1d4de5fb97c7ade2685b1ded8013785d6623cc18d214320b6bb6475968bf0b8b6fb4e317a0f9d6f03eaf8ce6675bc60d6bbad7cf34b5fa511d8e963dbba288b1960e75d678f3adfc719c99674c072166708589033e2d9afe7ae2f5b9e386cd1b50a4550696d957cb4900f03a82012708dafc9e1b880fd083b32182b869be8e098c4d90829ce8f72d0163c1d5cf348a862d5506309ef9f4360c606c7ab4db26b016007d3ad0ab86a0b8f7166496996a7da21cf1f1b04d9b3e26a3d077c2be4ec20253b8642161bc3f444f53679c1f3d47ce2fd7544e0b2cc94692d4a704debef7bcb61328d6caa02bbebaebb5d7e581e4b66559e635f805ffea0a6e3c511bbd10f4519ece37dc24887e11b55dee01c3b1283aa067c58eab4709f85e99d46de5fea00000000000000000000000000000000000000000000000000000000000000000880000000000000000", "0xf903bca0d3e86fee61cc6a89aff2c9bbcefa6a4801869f751ec539144849d986c13e9b31a01dcc4de8dec75d7aab85b567b6ccd41ad312451b948a7413f0a142fd40d49347947ae2f5b9e386cd1b50a4550696d957cb4900f03aa0399b4fc0c23aa173febb49cbcfd8234a26218b4b7940df92e0839efe118da3eda056e81f171bcc55a6ff8345e692c0f86e5b48e01b996cadc001622fb5e363b421a056e81f171bcc55a6ff8345e692c0f86e5b48e01b996cadc001622fb5e363b421b90100000000000000000000000000000000000000000000000000000000000000000000000000000000000000000000000000000000000000000000000000000000000000000000000000000000000000000000000000000000000000000000000000000000000000000000000000000000000000000000000000000000000000000000000000000000000000000000000000000000000000000000000000000000000000000000000000000000000000000000000000000000000000000000000000000000000000000000000000000000000000000000000000000000000000000000000000000000000000000000000000000000000000000000000000000000000281c88401c9c38080845f49cd4bb901c4d883010002846765746888676f312e31332e34856c696e75780000000000000022b81f8e175ffde54d797fe11eb03f9e3bf75f1d2a7cdd959bfe8d9487b2a43b33565295a698f7e22d4c407bbe49438ed859fe965b140dcf1aab71a92f7be8361c80a4c1e7e9aaf001d0877f1cfde21835e7a025f4da968de7e4d7e4004197917f4070f14430b3230294d12c6ab2aac5c2cd68e80b16b5816488aa4d1955ee33403f8ccb1d4de5fb97c7ade2685b1ded8013785d6623cc18d214320b6bb6475968bf0b8b6fb4e317a0f9d6f03eaf8ce6675bc60d6bbad7cf34b5fa511d8e963dbba288b1960e75d678f3adfc719c99674c072166708589033e2d9afe7ae2f5b9e386cd1b50a4550696d957cb4900f03a82012708dafc9e1b880fd083b32182b869be8e098c4d90829ce8f72d0163c1d5cf348a862d5506309ef9f4360c606c7ab4db26b016007d3ad0ab86a0b8f7166496996a7da21cf1f1b04d9b3e26a3d077c2be4ec20253b8642161bc3f444f53679c1f3d47ce2fd7544e0b2cc94692d4a704debef7bcb61328d6caa02bbebaebb5d7e581e4b66559e635f805ffea0a6e3c511bbd10f4519ece37dc24887e11b55dee01c3b1283aa067c58eab4709f85e99d46de5fea00000000000000000000000000000000000000000000000000000000000000000880000000000000000");
            expect(validatorAddress).to.equal(true);
        });

        it("Check that signed and unsigned headers do not have matching fields", async function () {
            const validatorAddress = await bscRelay.compareBlockHeader(testdata.unsignedHeaders[0], testdata.signedHeaders[1]);
            //const validatorAddress = await bscRelay.compareBlockHeader("0xf903bd38a0d3e86fee61cc6a89aff2c9bbcefa6a4801869f751ec539144849d986c13e9b31a01dcc4de8dec75d7aab85b567b6ccd41ad312451b948a7413f0a142fd40d49347947ae2f5b9e386cd1b50a4550696d957cb4900f03aa0399b4fc0c23aa173febb49cbcfd8234a26218b4b7940df92e0839efe118da3eda056e81f171bcc55a6ff8345e692c0f86e5b48e01b996cadc001622fb5e363b421a056e81f171bcc55a6ff8345e692c0f86e5b48e01b996cadc001622fb5e363b421b90100000000000000000000000000000000000000000000000000000000000000000000000000000000000000000000000000000000000000000000000000000000000000000000000000000000000000000000000000000000000000000000000000000000000000000000000000000000000000000000000000000000000000000000000000000000000000000000000000000000000000000000000000000000000000000000000000000000000000000000000000000000000000000000000000000000000000000000000000000000000000000000000000000000000000000000000000000000000000000000000000000000000000000000000000000000000281c88401c9c38080845f49cd4bb901c4d883010002846765746888676f312e31332e34856c696e75780000000000000022b81f8e175ffde54d797fe11eb03f9e3bf75f1d2a7cdd959bfe8d9487b2a43b33565295a698f7e22d4c407bbe49438ed859fe965b140dcf1aab71a92f7be8361c80a4c1e7e9aaf001d0877f1cfde21835e7a025f4da968de7e4d7e4004197917f4070f14430b3230294d12c6ab2aac5c2cd68e80b16b5816488aa4d1955ee33403f8ccb1d4de5fb97c7ade2685b1ded8013785d6623cc18d214320b6bb6475968bf0b8b6fb4e317a0f9d6f03eaf8ce6675bc60d6bbad7cf34b5fa511d8e963dbba288b1960e75d678f3adfc719c99674c072166708589033e2d9afe7ae2f5b9e386cd1b50a4550696d957cb4900f03a82012708dafc9e1b880fd083b32182b869be8e098c4d90829ce8f72d0163c1d5cf348a862d5506309ef9f4360c606c7ab4db26b016007d3ad0ab86a0b8f7166496996a7da21cf1f1b04d9b3e26a3d077c2be4ec20253b8642161bc3f444f53679c1f3d47ce2fd7544e0b2cc94692d4a704debef7bcb61328d6caa02bbebaebb5d7e581e4b66559e635f805ffea0a6e3c511bbd10f4519ece37dc24887e11b55dee01c3b1283aa067c58eab4709f85e99d46de5fea00000000000000000000000000000000000000000000000000000000000000000880000000000000001", "0xf903bca0d3e86fee61cc6a89aff2c9bbcefa6a4801869f751ec539144849d986c13e9b31a01dcc4de8dec75d7aab85b567b6ccd41ad312451b948a7413f0a142fd40d49347947ae2f5b9e386cd1b50a4550696d957cb4900f03aa0399b4fc0c23aa173febb49cbcfd8234a26218b4b7940df92e0839efe118da3eda056e81f171bcc55a6ff8345e692c0f86e5b48e01b996cadc001622fb5e363b421a056e81f171bcc55a6ff8345e692c0f86e5b48e01b996cadc001622fb5e363b421b90100000000000000000000000000000000000000000000000000000000000000000000000000000000000000000000000000000000000000000000000000000000000000000000000000000000000000000000000000000000000000000000000000000000000000000000000000000000000000000000000000000000000000000000000000000000000000000000000000000000000000000000000000000000000000000000000000000000000000000000000000000000000000000000000000000000000000000000000000000000000000000000000000000000000000000000000000000000000000000000000000000000000000000000000000000000000281c88401c9c38080845f49cd4bb901c4d883010002846765746888676f312e31332e34856c696e75780000000000000022b81f8e175ffde54d797fe11eb03f9e3bf75f1d2a7cdd959bfe8d9487b2a43b33565295a698f7e22d4c407bbe49438ed859fe965b140dcf1aab71a92f7be8361c80a4c1e7e9aaf001d0877f1cfde21835e7a025f4da968de7e4d7e4004197917f4070f14430b3230294d12c6ab2aac5c2cd68e80b16b5816488aa4d1955ee33403f8ccb1d4de5fb97c7ade2685b1ded8013785d6623cc18d214320b6bb6475968bf0b8b6fb4e317a0f9d6f03eaf8ce6675bc60d6bbad7cf34b5fa511d8e963dbba288b1960e75d678f3adfc719c99674c072166708589033e2d9afe7ae2f5b9e386cd1b50a4550696d957cb4900f03a82012708dafc9e1b880fd083b32182b869be8e098c4d90829ce8f72d0163c1d5cf348a862d5506309ef9f4360c606c7ab4db26b016007d3ad0ab86a0b8f7166496996a7da21cf1f1b04d9b3e26a3d077c2be4ec20253b8642161bc3f444f53679c1f3d47ce2fd7544e0b2cc94692d4a704debef7bcb61328d6caa02bbebaebb5d7e581e4b66559e635f805ffea0a6e3c511bbd10f4519ece37dc24887e11b55dee01c3b1283aa067c58eab4709f85e99d46de5fea00000000000000000000000000000000000000000000000000000000000000000880000000000000000");
            expect(validatorAddress).to.equal(false);
        });
    });

    describe("submitEpochBlock", function () {

        it("Reverts if provided validator set is wrong", async function () {

            //rlp without signature - block 200
            await expect(bscRelay.submitEpochBlock(testdata.unsignedHeaders, testdata.signedHeaders, ["0x2465176c461afb316ebc773c61faee85a6515daa","0x295e26495cef6f69dfa69911d9d8e4f3bbadb89b","0x29a97c6effb8a411dabc6adeefaa84f5067c8bbe","0x2d4c407bbe49438ed859fe965b140dcf1aab71a9","0x3f349bbafec1551819b8be1efea2fc46ca749aa1","0x4430b3230294d12c6ab2aac5c2cd68e80b16b581","0x685b1ded8013785d6623cc18d214320b6bb64759","0x70f657164e5b75689b64b7fd1fa275f334f28e18","0x7ae2f5b9e386cd1b50a4550696d957cb4900f03a","0x8b6c8fd93d6f4cea42bbb345dbc6f0dfdb5bec73","0x9bb832254baf4e8b4cc26bd2b52b31389b56e98b", "0x9f8ccdafcc39f3c7d6ebf637c9151673cbc36b88","0xa6f79b60359f141df90a0c745125b131caaffd12","0xb218c5d6af1f979ac42bc68d98a5a0d796c6ab01","0xb8f7166496996a7da21cf1f1b04d9b3e26a3d077","0xbe807dddb074639cd9fa61b47676c064fc50d62c","0xce2fd7544e0b2cc94692d4a704debef7bcb61328","0xe2d3a739effcd3a99387d015e260eefac72ebea1","0xe9ae3261a475a27bb1028f140bc2a7c843318afd","0xea0a6e3c511bbd10f4519ece37dc24887e11b55d","0xee226379db83cffc681495730c11fdde79ba4c0c"])).
                to.be.revertedWith("Wrong validator set provided.");
        });

        it("Reverts if mixHash is not 0", async function () {
            //rlp without signature - block 200
            await expect(bscRelay.submitEpochBlock(testdata.unsignedWrongMixHash, testdata.signedWrongMixHash,  ["0x22b81f8e175ffde54d797fe11eb03f9e3bf75f1d","0x2a7cdd959bfe8d9487b2a43b33565295a698f7e2","0x2d4c407bbe49438ed859fe965b140dcf1aab71a9","0x2f7be8361c80a4c1e7e9aaf001d0877f1cfde218","0x35e7a025f4da968de7e4d7e4004197917f4070f1","0x4430b3230294d12c6ab2aac5c2cd68e80b16b581","0x6488aa4d1955ee33403f8ccb1d4de5fb97c7ade2","0x685b1ded8013785d6623cc18d214320b6bb64759","0x68bf0b8b6fb4e317a0f9d6f03eaf8ce6675bc60d","0x6bbad7cf34b5fa511d8e963dbba288b1960e75d6","0x78f3adfc719c99674c072166708589033e2d9afe","0x7ae2f5b9e386cd1b50a4550696d957cb4900f03a","0x82012708dafc9e1b880fd083b32182b869be8e09","0x8c4d90829ce8f72d0163c1d5cf348a862d550630","0x9ef9f4360c606c7ab4db26b016007d3ad0ab86a0","0xb8f7166496996a7da21cf1f1b04d9b3e26a3d077","0xc2be4ec20253b8642161bc3f444f53679c1f3d47","0xce2fd7544e0b2cc94692d4a704debef7bcb61328","0xd6caa02bbebaebb5d7e581e4b66559e635f805ff","0xea0a6e3c511bbd10f4519ece37dc24887e11b55d","0xee01c3b1283aa067c58eab4709f85e99d46de5fe"])).
            to.be.revertedWith("mixHash must be 0x0000000000000000000000000000000000000000000000000000000000000000");
        });

        it("Reverts if difficulty is neither 1 nor 0", async function () {
            //rlp without signature - block 200
            await expect(bscRelay.submitEpochBlock(testdata.wrongDifficultyUnsignedHeaders, testdata.wrongDifficultySignedHeaders, ["0x22b81f8e175ffde54d797fe11eb03f9e3bf75f1d","0x2a7cdd959bfe8d9487b2a43b33565295a698f7e2","0x2d4c407bbe49438ed859fe965b140dcf1aab71a9","0x2f7be8361c80a4c1e7e9aaf001d0877f1cfde218","0x35e7a025f4da968de7e4d7e4004197917f4070f1","0x4430b3230294d12c6ab2aac5c2cd68e80b16b581","0x6488aa4d1955ee33403f8ccb1d4de5fb97c7ade2","0x685b1ded8013785d6623cc18d214320b6bb64759","0x68bf0b8b6fb4e317a0f9d6f03eaf8ce6675bc60d","0x6bbad7cf34b5fa511d8e963dbba288b1960e75d6","0x78f3adfc719c99674c072166708589033e2d9afe","0x7ae2f5b9e386cd1b50a4550696d957cb4900f03a","0x82012708dafc9e1b880fd083b32182b869be8e09","0x8c4d90829ce8f72d0163c1d5cf348a862d550630","0x9ef9f4360c606c7ab4db26b016007d3ad0ab86a0","0xb8f7166496996a7da21cf1f1b04d9b3e26a3d077","0xc2be4ec20253b8642161bc3f444f53679c1f3d47","0xce2fd7544e0b2cc94692d4a704debef7bcb61328","0xd6caa02bbebaebb5d7e581e4b66559e635f805ff","0xea0a6e3c511bbd10f4519ece37dc24887e11b55d","0xee01c3b1283aa067c58eab4709f85e99d46de5fe"])).
            to.be.revertedWith("Difficulty is not correct, it must be 1 or 2.");
        });

        it("Reverts if validator of the block is not included in the validator set", async function () {
            //rlp without signature - block 200
            await expect(bscRelay.submitEpochBlock(testdata.unsignedWrongSignature, testdata.signedWrongSignature,  ["0x22b81f8e175ffde54d797fe11eb03f9e3bf75f1d","0x2a7cdd959bfe8d9487b2a43b33565295a698f7e2","0x2d4c407bbe49438ed859fe965b140dcf1aab71a9","0x2f7be8361c80a4c1e7e9aaf001d0877f1cfde218","0x35e7a025f4da968de7e4d7e4004197917f4070f1","0x4430b3230294d12c6ab2aac5c2cd68e80b16b581","0x6488aa4d1955ee33403f8ccb1d4de5fb97c7ade2","0x685b1ded8013785d6623cc18d214320b6bb64759","0x68bf0b8b6fb4e317a0f9d6f03eaf8ce6675bc60d","0x6bbad7cf34b5fa511d8e963dbba288b1960e75d6","0x78f3adfc719c99674c072166708589033e2d9afe","0x7ae2f5b9e386cd1b50a4550696d957cb4900f03a","0x82012708dafc9e1b880fd083b32182b869be8e09","0x8c4d90829ce8f72d0163c1d5cf348a862d550630","0x9ef9f4360c606c7ab4db26b016007d3ad0ab86a0","0xb8f7166496996a7da21cf1f1b04d9b3e26a3d077","0xc2be4ec20253b8642161bc3f444f53679c1f3d47","0xce2fd7544e0b2cc94692d4a704debef7bcb61328","0xd6caa02bbebaebb5d7e581e4b66559e635f805ff","0xea0a6e3c511bbd10f4519ece37dc24887e11b55d","0xee01c3b1283aa067c58eab4709f85e99d46de5fe"])).
            to.be.revertedWith("The validator of the block is not included in the validator set.");
        });

        it("Check if a valid submission works", async function () {

            //rlp without signature - block 200
            let tx = await bscRelay.submitEpochBlock(testdata.unsignedHeaders, testdata.signedHeaders, ["0x22b81f8e175ffde54d797fe11eb03f9e3bf75f1d","0x2a7cdd959bfe8d9487b2a43b33565295a698f7e2","0x2d4c407bbe49438ed859fe965b140dcf1aab71a9","0x2f7be8361c80a4c1e7e9aaf001d0877f1cfde218","0x35e7a025f4da968de7e4d7e4004197917f4070f1","0x4430b3230294d12c6ab2aac5c2cd68e80b16b581","0x6488aa4d1955ee33403f8ccb1d4de5fb97c7ade2","0x685b1ded8013785d6623cc18d214320b6bb64759","0x68bf0b8b6fb4e317a0f9d6f03eaf8ce6675bc60d","0x6bbad7cf34b5fa511d8e963dbba288b1960e75d6","0x78f3adfc719c99674c072166708589033e2d9afe","0x7ae2f5b9e386cd1b50a4550696d957cb4900f03a","0x82012708dafc9e1b880fd083b32182b869be8e09","0x8c4d90829ce8f72d0163c1d5cf348a862d550630","0x9ef9f4360c606c7ab4db26b016007d3ad0ab86a0","0xb8f7166496996a7da21cf1f1b04d9b3e26a3d077","0xc2be4ec20253b8642161bc3f444f53679c1f3d47","0xce2fd7544e0b2cc94692d4a704debef7bcb61328","0xd6caa02bbebaebb5d7e581e4b66559e635f805ff","0xea0a6e3c511bbd10f4519ece37dc24887e11b55d","0xee01c3b1283aa067c58eab4709f85e99d46de5fe"]);
            const receipt = await ethers.provider.getTransactionReceipt(tx.hash);
            console.log(receipt);

        });

    });


});

